:020000040800F2
:1000000068060020290200083102000833020008B7
:10001000350200083702000839020008000000001D
:100020000000000000000000000000003B0200088B
:100030003D020008000000003F0200084F0A0008CF
:10004000430200084302000843020008430200087C
:10005000430200084302000843020008430200086C
:10006000430200084302000843020008430200085C
:10007000430200084302000843020008430200084C
:10008000430200084302000843020008430200083C
:10009000430200084302000843020008430200082C
:1000A000430200084302000843020008430200081C
:1000B000430200084302000843020008430200080C
:1000C00043020008430200084302000843020008FC
:1000D0004302000843020008250C00084302000800
:1000E00043020008430200084302000843020008DC
:1000F00043020008430200084302000843020008CC
:1001000043020008430200084302000843020008BB
:100110004302000843020008750B0008910B000819
:10012000430200084302000843020008430200089B
:10013000430200084302000843020008430200088B
:10014000430200084302000843020008430200087B
:10015000430200084302000843020008430200086B
:10016000430200084302000843020008430200085B
:100170004302000843020008430200080000000098
:10018000430200084302000800F002F800F03CF8C7
:100190000AA090E8000C82448344AAF10107DA45E2
:1001A00001D100F031F8AFF2090EBAE80F0013F0F8
:1001B000010F18BFFB1A43F0010318477C0B000026
:1001C0009C0B0000103A24BF78C878C1FAD85207B7
:1001D00024BF30C830C144BF04680C6070470000C1
:1001E0000023002400250026103A28BF78C1FBD840
:1001F000520728BF30C148BF0B6070471FB500F0E1
:1002000089FD1FBD10B510BD00F031F81146FFF794
:10021000F5FF00F039FD00F04FF803B4FFF7F2FFEF
:1002200003BC00F057F80000094880470948004720
:10023000FEE7FEE7FEE7FEE7FEE7FEE7FEE7FEE796
:10024000FEE7FEE704480549054A064B70470000F3
:10025000110B0008890100086800002068060020D2
:10026000680200206802002070477047704775469A
:1002700000F02CF8AE4605006946534620F0070012
:10028000854618B020B5FFF7DDFFBDE820404FF0F0
:1002900000064FF000074FF000084FF0000B21F070
:1002A0000701AC46ACE8C009ACE8C009ACE8C0093D
:1002B000ACE8C0098D46704710B50446AFF3008026
:1002C0002046BDE81040FFF7A8BF00000048704777
:1002D0000800002001491820ABBEFEE726000200FE
:1002E0007047826942EA01428261704782690A432B
:1002F0008261704742694A40426170470B4800681A
:1003000040F00100094908600948006820F0030036
:10031000074908600846C06820F00100C860084628
:10032000C06840F00200C8607047000030380240EA
:10033000000002406148006840F002005F49086028
:100340005E481030006840F400105C4910310860CD
:100350005B48006820F080705949086008460068D2
:1003600020F0007008600846006840F08060086077
:100370000846006820F00060086051482038006896
:1003800020F480504E49203908600846006840F447
:10039000005008604A481838006840F480504849C6
:1003A000183908600846006840F400500860081FCB
:1003B000006840F04000091F086041481438006898
:1003C00020F480503E49143908600846006820F443
:1003D000005008603A48006820F0805038490860B2
:1003E0000846006820F0005008600846006840F0A9
:1003F000804008600846006820F0004008603048EF
:100400002038006820F480402D49203908600846D3
:10041000006840F40040086029481838006840F43B
:1004200080402749183908600846006840F40040B9
:100430000860081F006840F08000091F086020481D
:100440001438006820F480401D49143908600846BB
:10045000006820F4004008601A48006820F03F005F
:10046000184908600846006840F02A0008601548EE
:10047000183000686FF30B00124918310860084605
:10048000006840F0D00008600846006820F4004092
:100490000860081D006840F02B00091D08600A482C
:1004A000006840F00400084908600648001F006822
:1004B00040F001000349091F0860704730380240CE
:1004C0002004024004540040003001405D480068B0
:1004D00040F008005B4908605B48006820F000704D
:1004E000594908600846006840F080700860081D9F
:1004F000006820F48050091D086053480C300068E3
:1005000020F0407050490C310860081F006840F02E
:100510008070091F08600846006820F000700860BD
:100520004948006820F000604749086008460068B4
:1005300040F080600860081D006820F40050091D2C
:10054000086041480C30006820F040603E490C31A2
:100550000860081F006840F08060091F08600846B6
:10056000006820F0006008603748006820F0005004
:10057000354908600846006840F080500860081D52
:10058000006820F48040091D08602F480C30006886
:1005900020F040502C490C310860081F006840F0E2
:1005A0008050091F08600846006820F0005008606D
:1005B0002548006820F0004023490860084600688C
:1005C00040F080400860081D006820F40040091DCC
:1005D00008601D480C30006820F040401A490C317A
:1005E0000860081F006840F08040091F0860084646
:1005F000006820F0004008601348006820F40060A4
:10060000114908600846006840F480600860081DD1
:10061000006820F02000091D08600B480C300068BD
:1006200020F4406008490C310860081F006840F45D
:100630008060091F08600846006820F400600860B8
:100640007047000030380240000C02403F4800680C
:1006500020F03F003D4908600846006847F6C07139
:1006600088433A4908600846006820F44030086032
:100670000846006820F0706008600846006820F4B2
:1006800080000860081F006840F48030091F08607F
:1006900000BF2E48001F006800F400300028F8D08A
:1006A0002A48001D00682949091D0860084600689D
:1006B00040F4A05008600846006840F4004008601C
:1006C000081F006840F00800091F0860084600681D
:1006D00040F4A84008600846006820F440300860F4
:1006E0000846006840F4800008600846006840F052
:1006F000E0600860081F006840F08070091F086013
:1007000000BF1248001F006800F000700028F8D0F9
:100710000F48006840F2057108430D4908600B4816
:10072000001D006820F003000849091D0860084604
:10073000006840F00200086000BF0448001D006827
:1007400000F008000028F8D070470000043802408C
:10075000003C024010B51248006840F010001049FB
:1007600008601048006840F080000E4908604AF2B6
:100770000F4088621320C8620846006940F00100FB
:1007800008610846C06840F00100C860362000F0EB
:1007900053F90448006840F001000249086010BDA8
:1007A000403802400010004010B51648006840F084
:1007B0002000144908601448006840F08000124985
:1007C00008604AF20F4010492831086040F2E730D3
:1007D000091D08600C481030006840F001000A490B
:1007E00010310860081F006840F00100091F086010
:1007F000372000F021F90448006840F00100024968
:10080000086010BD403802400014004000B50022CE
:100810001146272000F088F8FF220121272000F050
:1008200083F8FD221221272000F07EF800BD000091
:1008300070B502460023002455062B0E012505EB5A
:100840004205ECB2304D2D6845F480752E4E356072
:1008500000BF2D4D14352D6805F00105002DF8D091
:10086000294D14352D68284D10352B6000BF264DBD
:1008700014352D6805F00205002DF8D0224D1435F1
:100880002D68214D18352D681F4D1035296000BF8A
:100890001D4D14352D6805F00405002DF8D01A4DB6
:1008A0002D6845F48075184E356000BF164D14351F
:1008B0002D6805F00105002DF8D0134D14352D6875
:1008C000114D10352C6000BF0F4D14352D6805F00B
:1008D0000205002DF8D00C4D14352D680A4D183541
:1008E0002D6800BF084D14352D6805F04005002D1A
:1008F000F8D0054D10352D68E8B2034D2D6845F44C
:100900000075014E356070BD0054004070B505465D
:100910000E46144631462846FFF78AFF204008B1AC
:10092000012070BD0020FCE710B5204B1B6843F48C
:1009300080731E4C236000BF1C4B14331B6803F0F4
:100940000103002BF8D0194B14331B684300174CDC
:100950001034236000BF154B14331B6803F00203EF
:10096000002BF8D0114B14331B68104B18331B6845
:100970000E4B1033196000BF0C4B14331B6803F08F
:100980008003002BF8D0094B10331A6000BF074BCF
:1009900014331B6803F00403002BF8D0034B1B68CF
:1009A00043F40073014C236010BD0000005400406C
:1009B0002DE9F04106460F4614461D464FF000084B
:1009C000012D06D139463046FFF732FF40EA0408D0
:1009D00005E039463046FFF72BFF20EA040842467F
:1009E00039463046FFF7A0FFBDE8F08110B5114948
:1009F000087800EBD0714910A0EB410161B10023F0
:100A0000022212212720FFF7D3FF012308221221FF
:100A10002720FFF7CDFF0BE0012302221221272020
:100A2000FFF7C6FF0023082212212720FFF7C0FF8F
:100A300010BD00000400002000F01F0201219140C1
:100A40004209920002F1E022C2F80011704770479B
:100A500070B500200022022300240221274D2D68BA
:100A600005F00C0020B1042806D0082834D107E096
:100A7000234D244E356033E0234D224E35602FE068
:100A80001E4D2D1F2D68C5F380541C4D2D1F2D6844
:100A900005F03F0154B11C4DB5FBF1F5174E361F63
:100AA0003668C6F3881605FB06F209E0144DB5FB5F
:100AB000F1F5124E361F3668C6F3881605FB06F2AE
:100AC0000E4D2D1F2D68C5F301456D1C6B00B2FB4B
:100AD000F3F50C4E356003E0094D0A4E356000BF5A
:100AE00000BF064D2D68C5F30315084E705D054D1A
:100AF0002D68C540034E356070BD000008380240C7
:100B00000024F4000000002000127A001E0D0008EE
:100B10001448006840F470001249086012480068E8
:100B200040F001001049086000200F4908310860BA
:100B30000D4800680D4908400B4908600C48091D24
:100B40000860081F006820F48020091F086000204A
:100B500005490C3108604FF0006002498039086097
:100B60007047000088ED00E000380240FFFFF6FE0D
:100B70001030002410B50548006920F00100034939
:100B80000861FFF733FF00F01BF810BD00100040B4
:100B900010B50848006820F00100064908600648C2
:100BA0000078401C0449087020210448FFF7A2FB8C
:100BB00010BD00001014004004000020000C024092
:100BC00010B5022212212720FFF7A0FE28B14FF412
:100BD00080510548FFF78AFB04E04FF4805102483A
:100BE000FFF77FFB10BD0000000C024000BF05496D
:100BF000096801F040010029F9D00249091D086087
:100C0000704700000044004010B50246002305E094
:100C100019465C1CE3B2505CFFF7E8FFD05C00288B
:100C2000F6D110BD10B51248006800F02000F0B1F8
:100C30000F48006820F020000D490860081D00687A
:100C4000302807D10BA0FFF7DFFF4FF400510B480E
:100C5000FFF747FB0648001D0068312807D108A0B0
:100C6000FFF7D2FF4FF400510448FFF73FFB10BDE0
:100C7000004400404F46460D0A000000000C0240B0
:100C80004F4E0D0A00000000FFF7E0FCFFF7E0FE0A
:100C90001C4800684FF47A72B0FBF2F1481EB0F1C4
:100CA000807F00D31BE0481E4FF0E02250615017B8
:100CB0000F22002807DA13071D0E134B00F00F0454
:100CC000241F1D5503E013071C0E104B1C5400BFBE
:100CD00000204FF0E02290610720106100BFFFF775
:100CE00063FDFFF737FDFFF7F1FBFFF707FBFFF7AA
:100CF00021FBFFF78BFD20210548FFF7F7FA00BF26
:100D0000FEE700000000002018ED00E000E400E035
:100D1000000C02404FF04070E1EE100A70470000F6
:100D2000000000000000010203040607080900009B
:100D30000000010203040000580D0008000000201C
:100D400008000000C4010008600D00080800002031
:100D500060060000E00100080024F400000000002C
:040000050800018965
:00000001FF
